{
  "contractName": "Poisoned",
  "abi": [
    {
      "inputs": [],
      "payable": true,
      "stateMutability": "payable",
      "type": "constructor"
    },
    {
      "payable": false,
      "stateMutability": "nonpayable",
      "type": "fallback"
    },
    {
      "constant": false,
      "inputs": [
        {
          "name": "amount",
          "type": "uint256"
        }
      ],
      "name": "bid",
      "outputs": [],
      "payable": false,
      "stateMutability": "nonpayable",
      "type": "function"
    },
    {
      "constant": false,
      "inputs": [],
      "name": "reduceBid",
      "outputs": [],
      "payable": false,
      "stateMutability": "nonpayable",
      "type": "function"
    },
    {
      "constant": false,
      "inputs": [
        {
          "name": "auction",
          "type": "address"
        }
      ],
      "name": "setTarget",
      "outputs": [],
      "payable": false,
      "stateMutability": "nonpayable",
      "type": "function"
    },
    {
      "constant": true,
      "inputs": [],
      "name": "getTarget",
      "outputs": [
        {
          "name": "",
          "type": "address"
        }
      ],
      "payable": false,
      "stateMutability": "view",
      "type": "function"
    },
    {
      "constant": true,
      "inputs": [],
      "name": "getBalance",
      "outputs": [
        {
          "name": "",
          "type": "uint256"
        }
      ],
      "payable": false,
      "stateMutability": "view",
      "type": "function"
    }
  ],
  "bytecode": "0x606060405261047b806100136000396000f30060606040526004361061006d576000357c0100000000000000000000000000000000000000000000000000000000900463ffffffff168063057ae2351461007a57806312065fe01461008f578063454a2ab3146100b8578063776d1a01146100db578063f00e6a2a14610114575b341561007857600080fd5b005b341561008557600080fd5b61008d610169565b005b341561009a57600080fd5b6100a2610260565b6040518082815260200191505060405180910390f35b34156100c357600080fd5b6100d9600480803590602001909190505061027f565b005b34156100e657600080fd5b610112600480803573ffffffffffffffffffffffffffffffffffffffff169060200190919050506103ad565b005b341561011f57600080fd5b610127610426565b604051808273ffffffffffffffffffffffffffffffffffffffff1673ffffffffffffffffffffffffffffffffffffffff16815260200191505060405180910390f35b60008073ffffffffffffffffffffffffffffffffffffffff166000809054906101000a900473ffffffffffffffffffffffffffffffffffffffff1673ffffffffffffffffffffffffffffffffffffffff1614151561025d576000809054906101000a900473ffffffffffffffffffffffffffffffffffffffff1690508073ffffffffffffffffffffffffffffffffffffffff1663057ae2356040518163ffffffff167c0100000000000000000000000000000000000000000000000000000000028152600401600060405180830381600087803b151561024857600080fd5b6102c65a03f1151561025957600080fd5b5050505b50565b60003073ffffffffffffffffffffffffffffffffffffffff1631905090565b60003073ffffffffffffffffffffffffffffffffffffffff163182111580156102f65750600073ffffffffffffffffffffffffffffffffffffffff166000809054906101000a900473ffffffffffffffffffffffffffffffffffffffff1673ffffffffffffffffffffffffffffffffffffffff1614155b156103a9576000809054906101000a900473ffffffffffffffffffffffffffffffffffffffff1690508073ffffffffffffffffffffffffffffffffffffffff16631998aeef836000604051602001526040518263ffffffff167c01000000000000000000000000000000000000000000000000000000000281526004016020604051808303818588803b151561038b57600080fd5b6125ee5a03f1151561039c57600080fd5b5050505060405180519050505b5050565b3073ffffffffffffffffffffffffffffffffffffffff168173ffffffffffffffffffffffffffffffffffffffff1614151561042357806000806101000a81548173ffffffffffffffffffffffffffffffffffffffff021916908373ffffffffffffffffffffffffffffffffffffffff1602179055505b50565b60008060009054906101000a900473ffffffffffffffffffffffffffffffffffffffff169050905600a165627a7a72305820fb39e2b587162ba1a05ec8233ed77829af72380c383c0c4430bd15353ae2943e0029",
  "source": "pragma solidity 0.4.19;\r\n\r\nimport \"./AuctionInterface.sol\";\r\n\r\n/** @title Poisoned */\r\ncontract Poisoned {\r\n\r\n\taddress target;\r\n\r\n\t/* Constructor */\r\n\tfunction Poisoned() payable {}\r\n\r\n\t/* Bid function */\r\n\tfunction bid(uint amount) external {\r\n\t\tif ((amount <= this.balance) && (target != address(0))) {\r\n\t\t\tAuctionInterface _target = AuctionInterface(target);\r\n\t\t\t_target.bid.value(amount)();\r\n\t\t}\r\n\t}\r\n\r\n\tfunction reduceBid() external {\r\n\t\tif (target != address(0)) {\r\n\t\t\tAuctionInterface _target = AuctionInterface(target);\r\n\t\t\t_target.reduceBid();\r\n\t\t}\r\n\t}\r\n\r\n\tfunction setTarget(address auction) external {\r\n\t\tif (auction != address(this)) {\r\n\t\t\ttarget = auction;\r\n\t\t}\r\n\t}\r\n\r\n\tfunction getTarget() constant returns (address) {\r\n\t\treturn target;\r\n\t}\r\n\r\n\tfunction getBalance() constant returns (uint) {\r\n\t\treturn this.balance;\r\n\t}\r\n\r\n\tfunction() {}\r\n}\r\n",
  "sourcePath": "C:\\Users\\Max\\Documents\\Fall 2018\\Blockchain for Developers\\Lab 3\\sp18-lab03\\contracts\\Poisoned.sol",
  "compiler": {
    "name": "solc",
    "version": "0.4.19+commit.c4cbbb05.Emscripten.clang"
  },
  "schemaVersion": "1.0.1",
  "updatedAt": "2018-03-01T10:00:03.747Z"
}